:1000000005308A00FA2D00000A108A100A118207B2
:1000100028340F34013406340A06D4326D38A01265
:10002000660043000A06D332EE396F39202AE536DE
:1000300070104529D22700008D2AED346410253632
:1000400064002010201020102010201020102010FC
:10005000201020102000383084008313000803197A
:100060003E280630F800F701F70B3428F80B332848
:100070007B30F700F70B3A28800B312808003F1837
:100080004328081244280816831608128312BF1842
:100090004B2888124C2888168316881283123F1921
:1000A0005328081354280817831608138312BF19FE
:1000B0005B2888135C28881783168813891083129D
:1000C0008914831689108312891008008316091178
:1000D00083120911BC08031D6F2809117028091526
:1000E00083160911A630F700F70B74280000891059
:1000F000831289103D0EBE000F30BE053E08BF00C2
:100100003F203D080F39BE00BF003F200800831686
:10011000081283120812831688128312881283161B
:100120000813831208138316881383128813831607
:1001300009118312091183168910831289100F3057
:10014000B8002B200130AA002A08033C031CB02869
:100150000330BF003F200530B8002B20AA0AA42896
:100160000230BF003F20AA012A08033C031CC1281B
:100170002A080420AB00BC012B08BD006620AA0A97
:10018000B4288A110A12122E0330AD02031CD228A1
:100190002D308400831300080319D228D028D028DA
:1001A000800BCF28080083168610831286108316D2
:1001B000861002308312AC00F930AD00C420AC0BC5
:1001C000DC2883168614A630F700F70BE52800001C
:1001D000861483128618F6280230AC00C730AD00B2
:1001E000C420AC0BEE280130F800F8280030F800ED
:1001F0000800AD012D08073C031C33292C08F7002B
:100200002D08F800031908290310F70CF80B04292E
:10021000003077180130AE002E08AF00831686102C
:1002200083128610831686100230F700F70B16290A
:10023000192900008312AF08031D202986102129E7
:100240008614831686108430F700F70B2529282999
:10025000000086140230F700F70B2C292F2900002C
:100260008312AD0AFA280800B101B0013008073C3A
:10027000031C642983168610831286108316861049
:100280000230F700F70B4229452900008614073099
:10029000F700F70B49294C2900008614831232100D
:1002A00086183214A630F700F70B542900000030EE
:1002B00032180130F800F808031D60290310612985
:1002C0000314B10CB00A36293108F8000800D32015
:1002D000F808031D6E290030F800BC29CC30AC00B2
:1002E000F9204430AC00F9203421F80803197429AE
:1002F000D320F808031D7F290030F800BC29CC303A
:10030000AC00F920BE30AC00F9202B08FA002A0816
:10031000AC002B08AD0034212C08840083132D1869
:100320008317840A80018403780880002B08FA0070
:100330002A08AC002B08AD002A08840083132B1870
:100340008317840A0008AF0084030008AE0034213C
:10035000B10100302E04F70078082F04FA002C08B1
:10036000840083132D188317840A7A08800084037D
:10037000770880000130F8008A110A12192E8E3099
:10038000F7002B08F8002A08F900FA01AB1FCD2965
:10039000F809F909F90A0319F80AF808031DDA2916
:1003A0007908F800F9010830F702F808031DDA2986
:1003B000F701E3290310F81BE129F90DF80DF70304
:1003C000DA29AB1FF8138A110A12212E2E080319FD
:1003D000AB2ABA0032080319AB2ABA02031CF5296A
:1003E0007F30BA070318AB2AFB298130BA02031CFD
:1003F000AB2A0319AB2A3A08F700F801F901FA0110
:10040000B9012F08B800B8173008B7003108B60096
:100410001930BA003508B60203181E2A0130B70297
:1004200003181E2AB80203181E2AB90203181E2A2E
:10043000B90AB80AB70A3508B607502A3408B7020D
:100440000318392A0130B8020318392AB9020318EF
:10045000392AB90AB80A3408B7073508B607031CA1
:10046000502AB70A031D502AB80A031D502AB90A98
:10047000502A33088038B80203184F2A0130B902D5
:1004800003184F2AB90A33088038B8073408B70769
:10049000031C2D2AB80A031D2D2AB90A2D2A7A1405
:1004A000BA0B532A5E2A0310B60DB70DB80DB90D5D
:1004B0000310FA0DF90DF80DBB0D0A2A3B1C662A34
:1004C0000310F80CF90CFA0CBB0C692AF70303199A
:1004D000AB2ABB1B922A0310B60DB70DB80DB90D90
:1004E0003508B60203187E2A0130B70203187E2AA7
:1004F000B80203187E2AB902031CA12A3408B702E5
:100500000318892A0130B8020318892AB902031C8A
:10051000A12A33088038B8020318922A0130B902A0
:10052000031CA12AFA0A031DA12AF90A031DA12A04
:10053000F80A031DA12AF70A0319AB2AF80CF90CD3
:10054000FA0C2F08BA003308BA06BA1FA92AF817FE
:10055000AF2AF813AF2AF701F801F901FA018A115D
:100560000A12372E37080C3A0319C02A063A031923
:10057000C82A073A0319C82A053A0319DE2AE32ACA
:10058000BC010130BD0066200230B8002B20E82AF3
:100590000130B8000230B900390BCF2AD22A4030DE
:1005A000BA00D32ABA0101303802BA073A088038B3
:1005B000BB00BC013B08BD006620E82ABC0110302E
:1005C000BD006620E82A0130BC003708BD00662067
:1005D00008000B08AB008B13831603178C170C1441
:1005E0000000000083120313AB1B8B170318202B92
:1005F00003170C087F390313AB0003170D0803130F
:10060000AC0003170F080313AD002B08B700B2228C
:100610002C0803178D0003132D0803178F000313F5
:100620000B08AE008B13831603178C170C140000F5
:10063000000083120313AE1B8B17AA0B202B3F2B3A
:1006400003170C0D0E0D7F390313AB0003170D08B4
:100650000313AC0003170F080313AD002B08B700FA
:10066000B2222C0803178D0003132D0803178F00E7
:100670008D0A03198F0A03100313AA0BE92A080035
:100680008318452B3F3084008313F701F801F901EB
:10069000FA01BF01C001C101C2013E083D043C0492
:1006A0003B040319832B2030C3000310B70DB80D92
:1006B000B90DBA0DBF0DC00DC10DC20D3E084202ED
:1006C000031D6C2B3D084102031D6C2B3C084002AE
:1006D000031D6C2B3B083F02031C7D2B3B08BF0214
:1006E0003C08031C3C0FC0023D08031C3D0FC10227
:1006F0003E08031C3E0FC2020314F70DF80DF90D5E
:10070000FA0DC30B552B3F088000840A4008800077
:10071000840A41088000840A420880000800040816
:10072000AF002E08B1000319212C2D08BA002C08A7
:10073000B9002B08B8002A08B700BE01BD0120305F
:10074000BC008230BB0037080319132CBF003B08E4
:100750000319132CBF070318B42B7F30BF02031CEF
:10076000132C0319132CB82B8130BF070318132C3B
:100770003F08F700F801F901FA013808C300C31770
:100780003908C2003A08C1001830BF00C001411C3E
:10079000E12B3E08FA07031CD32BF90A031DD32BC8
:1007A000F80A0319C0173D08F907031CDA2BF80AE9
:1007B0000319C0173C08B900B9173908F80703181E
:1007C000C017C00DF80CF90CFA0CC30CC20CC10C0C
:1007D0000310BF0BC62B0130F7070318132CF81BAF
:1007E000F82BC30DFA0DF90DF80DF7030319132CAF
:1007F000C31F092CFA0A031D092CF90A031D092C31
:10080000F80A031D092CF80CF90CFA0CF70A031965
:10081000132C3808C0003C08C006C01F112CF81764
:10082000172CF813172CF701F801F901FA017A08CF
:10083000AD007908AC007808AB007708AA00B10BCE
:10084000952B2D08BA002C08B9002B08B8002A08EF
:10085000B7003708B63CB700FA013808BB00B81734
:100860000310B80CB90CBA0CFA0CF90CF80CF70C14
:10087000B70B302CBB1F472CF709F809F909FA0907
:10088000F70A0319F80A0319F90A0319FA0A7A0888
:10089000AD007908AC007808AB007708AA00AD1F5E
:1008A0005E2CAF03AF16AA09AB09AC09AD09AA0AC1
:1008B0000319AB0A0319AC0A0319AD0A3B30B600A1
:1008C0009A30B500CA30B400B3010A30B1002E0826
:1008D0000319AF0A83142A30840083132D08BA0049
:1008E0002C08B9002B08B8002A08B7003608BE004B
:1008F0003508BD003408BC003308BB00402378082D
:10090000F708031D962C2E0A31020319962C2F0886
:100910000319982C0F3931020319902C0318C82C95
:10092000AF1BC82C2F1B982C2030C42C2030AF05B7
:10093000AF1EA62CAF122E08031DAF037708AF0021
:100940002D30B700B2222F08F700AF012E08310278
:10095000031DB42C7708AF002E30B700B2222F0849
:10096000F7002030AF0500303030AF1EC42CAF127E
:100970002E08031DAF037708AF002D30B700B22259
:100980002F08F700AF013030F7077708B700B22221
:1009900083103608BA003508B9003408B8003308A7
:1009A000B700BE01BD01BC010A30BB0040237A087C
:1009B000B6007908B5007808B4007708B300B10B29
:1009C0006A2C8A110A12562E0B08AA008B13831662
:1009D00003178C170C140000000083120313AA1BCA
:1009E0008B1703170C087F390319382D0313AA003E
:1009F00003170D080313AB0003170F080313AC0014
:100A00002A08B700B2222B0803178D0003132C0805
:100A100003178F0003130B08AD008B138316031706
:100A20008C170C140000000083120313AD1B8B17EE
:100A300003170C0D0E0D7F390319382D0313AA006F
:100A400003170D080313AB0003170F080313AC00C3
:100A50002A08B700B2222B0803178D0003132C08B5
:100A600003178F008D0A03198F0A0313E42C031751
:100A7000031308001030AE00F701FA01AB0CAA0C0A
:100A8000031C482D2C08F7070318FA0A2D08FA074B
:100A9000FA0CF70CF90CF80CAE0B3E2D8A110A1269
:100AA0007B2EF801F901F701FA012F08031D5B2DD8
:100AB0002E080319752D1030B0000310AC0DAD0DCC
:100AC000F70DFA0D2F087A02031D682D2E08770204
:100AD000031C712D2E08F702031CFA032F08FA02DB
:100AE0000314F80DF90DB00B5D2D8A110A12872E33
:100AF000B2010408B1003210831B3214AB1F882DE1
:100B0000B117311EB10AAA09AB09AA0A0319AB0A27
:100B10002B0EF038AD00AD07E23EAE00323EB00025
:100B20002B080F39AE07AE07B007E93EAF00AF079D
:100B3000AF072A0E0F39AF07B007AF0DB00DB009E0
:100B4000B00D2A080F39B007AD0D0730AC000A30E0
:100B5000B007AF03031CA82DAF07AE03031CAC2DD9
:100B6000AE07AD03031CB02DAD07AC03031CB42DC1
:100B70002C30840083130730310531138403310591
:100B8000031DC92D311A840A311AC92D2030F700EE
:100B9000E62D840730300402031931170008F700EE
:100BA000031DDA2D311BDA2D311AF42DB119DA2D8E
:100BB0002030E52DB11FE22D2D30F70084033113D5
:100BC000B113E62DB11531123030F707AB0104082F
:100BD000AA002B10831B2B147708B700B2222A0817
:100BE000840083132B188317840A311FCA2D8A119E
:100BF0000A12A02E03081F39830083161F149F14A6
:100C00001F159F1107309C0083131F109F141F1581
:100C10009F151F1383121F179F1783169F1383128D
:100C20001F1487283230B8002B20AB012030AA00D7
:100C30006729F8080319612E2108AB002008AA00D3
:100C4000BF297A08AD007908AC007808AB007708B6
:100C5000AA007A08B1007908B0007808AF007708D8
:100C6000AE00B501B401B3018330B200E6297A08C1
:100C7000A5007908A4007808A3007708A2000C302A
:100C800003178D0000308F00031007300313AA00F4
:100C9000E922893084002508AD002408AC0023082F
:100CA000AB002208AA000230AE008F2BDF30B70065
:100CB000B222113003178D0000308F000313E4249B
:100CC000682E123003178D0000308F000313E424C8
:100CD0001030F700F70B6A2E00001F151F196E2E3B
:100CE000A7011E08A6002708AB002608AA00AD0130
:100CF0006430AC003A2D7908AB007808AA00790876
:100D0000AD007808AC00AF01FF30AE00512D78087F
:100D1000643CA800A9017908031C790FA9021C30C2
:100D200003178D0000308F00031006300313AA0054
:100D3000E922103084002908AB002808AA00782D89
:100D40002530B700B222213003178D0000308F000C
:0E0D50000313E4241430B8002B20152E63008A
:02400E00323F3F
:00000001FF
;PIC16F877A
;CRC=8718  CREATED="04-fev-21 09:39"
